{
  "contractName": "ConfigurableToken",
  "abi": [
    {
      "constant": true,
      "inputs": [],
      "name": "tokensForSale",
      "outputs": [
        {
          "name": "",
          "type": "uint256"
        }
      ],
      "payable": false,
      "stateMutability": "view",
      "type": "function"
    },
    {
      "constant": true,
      "inputs": [],
      "name": "listingDate",
      "outputs": [
        {
          "name": "",
          "type": "uint256"
        }
      ],
      "payable": false,
      "stateMutability": "view",
      "type": "function"
    },
    {
      "constant": true,
      "inputs": [],
      "name": "totalSupply",
      "outputs": [
        {
          "name": "",
          "type": "uint256"
        }
      ],
      "payable": false,
      "stateMutability": "view",
      "type": "function"
    },
    {
      "constant": true,
      "inputs": [],
      "name": "bountyTokens",
      "outputs": [
        {
          "name": "",
          "type": "uint256"
        }
      ],
      "payable": false,
      "stateMutability": "view",
      "type": "function"
    },
    {
      "constant": true,
      "inputs": [],
      "name": "advisorsReleased",
      "outputs": [
        {
          "name": "",
          "type": "uint256"
        }
      ],
      "payable": false,
      "stateMutability": "view",
      "type": "function"
    },
    {
      "constant": true,
      "inputs": [],
      "name": "companyAddress",
      "outputs": [
        {
          "name": "",
          "type": "address"
        }
      ],
      "payable": false,
      "stateMutability": "view",
      "type": "function"
    },
    {
      "constant": true,
      "inputs": [],
      "name": "advisorsTokens",
      "outputs": [
        {
          "name": "",
          "type": "uint256"
        }
      ],
      "payable": false,
      "stateMutability": "view",
      "type": "function"
    },
    {
      "constant": true,
      "inputs": [],
      "name": "companyHeldTokens",
      "outputs": [
        {
          "name": "",
          "type": "uint256"
        }
      ],
      "payable": false,
      "stateMutability": "view",
      "type": "function"
    },
    {
      "constant": true,
      "inputs": [
        {
          "name": "_owner",
          "type": "address"
        }
      ],
      "name": "balanceOf",
      "outputs": [
        {
          "name": "balance",
          "type": "uint256"
        }
      ],
      "payable": false,
      "stateMutability": "view",
      "type": "function"
    },
    {
      "constant": true,
      "inputs": [],
      "name": "totalTokens",
      "outputs": [
        {
          "name": "",
          "type": "uint256"
        }
      ],
      "payable": false,
      "stateMutability": "view",
      "type": "function"
    },
    {
      "constant": true,
      "inputs": [],
      "name": "team",
      "outputs": [
        {
          "name": "",
          "type": "address"
        }
      ],
      "payable": false,
      "stateMutability": "view",
      "type": "function"
    },
    {
      "constant": true,
      "inputs": [],
      "name": "owner",
      "outputs": [
        {
          "name": "",
          "type": "address"
        }
      ],
      "payable": false,
      "stateMutability": "view",
      "type": "function"
    },
    {
      "constant": true,
      "inputs": [],
      "name": "tokensLocked",
      "outputs": [
        {
          "name": "",
          "type": "bool"
        }
      ],
      "payable": false,
      "stateMutability": "view",
      "type": "function"
    },
    {
      "constant": true,
      "inputs": [],
      "name": "teamTokens",
      "outputs": [
        {
          "name": "",
          "type": "uint256"
        }
      ],
      "payable": false,
      "stateMutability": "view",
      "type": "function"
    },
    {
      "constant": true,
      "inputs": [],
      "name": "saleContract",
      "outputs": [
        {
          "name": "",
          "type": "address"
        }
      ],
      "payable": false,
      "stateMutability": "view",
      "type": "function"
    },
    {
      "constant": true,
      "inputs": [
        {
          "name": "_owner",
          "type": "address"
        },
        {
          "name": "_spender",
          "type": "address"
        }
      ],
      "name": "allowance",
      "outputs": [
        {
          "name": "",
          "type": "uint256"
        }
      ],
      "payable": false,
      "stateMutability": "view",
      "type": "function"
    },
    {
      "constant": true,
      "inputs": [],
      "name": "advisors",
      "outputs": [
        {
          "name": "",
          "type": "address"
        }
      ],
      "payable": false,
      "stateMutability": "view",
      "type": "function"
    },
    {
      "constant": false,
      "inputs": [
        {
          "name": "newOwner",
          "type": "address"
        }
      ],
      "name": "transferOwnership",
      "outputs": [],
      "payable": false,
      "stateMutability": "nonpayable",
      "type": "function"
    },
    {
      "constant": true,
      "inputs": [],
      "name": "teamReleased",
      "outputs": [
        {
          "name": "",
          "type": "uint256"
        }
      ],
      "payable": false,
      "stateMutability": "view",
      "type": "function"
    },
    {
      "anonymous": false,
      "inputs": [
        {
          "indexed": false,
          "name": "saleContract",
          "type": "address"
        },
        {
          "indexed": false,
          "name": "tokensForSale",
          "type": "uint256"
        }
      ],
      "name": "SaleContractActivation",
      "type": "event"
    },
    {
      "anonymous": false,
      "inputs": [
        {
          "indexed": false,
          "name": "tokensOwner",
          "type": "address"
        },
        {
          "indexed": false,
          "name": "burnedTokensAmount",
          "type": "uint256"
        }
      ],
      "name": "Burn",
      "type": "event"
    },
    {
      "anonymous": false,
      "inputs": [
        {
          "indexed": true,
          "name": "previousOwner",
          "type": "address"
        },
        {
          "indexed": true,
          "name": "newOwner",
          "type": "address"
        }
      ],
      "name": "OwnershipTransferred",
      "type": "event"
    },
    {
      "anonymous": false,
      "inputs": [
        {
          "indexed": true,
          "name": "owner",
          "type": "address"
        },
        {
          "indexed": true,
          "name": "spender",
          "type": "address"
        },
        {
          "indexed": false,
          "name": "value",
          "type": "uint256"
        }
      ],
      "name": "Approval",
      "type": "event"
    },
    {
      "anonymous": false,
      "inputs": [
        {
          "indexed": true,
          "name": "from",
          "type": "address"
        },
        {
          "indexed": true,
          "name": "to",
          "type": "address"
        },
        {
          "indexed": false,
          "name": "value",
          "type": "uint256"
        }
      ],
      "name": "Transfer",
      "type": "event"
    },
    {
      "constant": false,
      "inputs": [
        {
          "name": "_saleContract",
          "type": "address"
        }
      ],
      "name": "activateSaleContract",
      "outputs": [],
      "payable": false,
      "stateMutability": "nonpayable",
      "type": "function"
    },
    {
      "constant": false,
      "inputs": [],
      "name": "isListing",
      "outputs": [],
      "payable": false,
      "stateMutability": "nonpayable",
      "type": "function"
    },
    {
      "constant": false,
      "inputs": [
        {
          "name": "_to",
          "type": "address"
        },
        {
          "name": "_value",
          "type": "uint256"
        }
      ],
      "name": "transfer",
      "outputs": [
        {
          "name": "",
          "type": "bool"
        }
      ],
      "payable": false,
      "stateMutability": "nonpayable",
      "type": "function"
    },
    {
      "constant": false,
      "inputs": [
        {
          "name": "_from",
          "type": "address"
        },
        {
          "name": "_to",
          "type": "address"
        },
        {
          "name": "_value",
          "type": "uint256"
        }
      ],
      "name": "transferFrom",
      "outputs": [
        {
          "name": "",
          "type": "bool"
        }
      ],
      "payable": false,
      "stateMutability": "nonpayable",
      "type": "function"
    },
    {
      "constant": false,
      "inputs": [
        {
          "name": "_spender",
          "type": "address"
        },
        {
          "name": "_value",
          "type": "uint256"
        }
      ],
      "name": "approve",
      "outputs": [
        {
          "name": "",
          "type": "bool"
        }
      ],
      "payable": false,
      "stateMutability": "nonpayable",
      "type": "function"
    },
    {
      "constant": false,
      "inputs": [
        {
          "name": "_spender",
          "type": "address"
        },
        {
          "name": "_addedValue",
          "type": "uint256"
        }
      ],
      "name": "increaseApproval",
      "outputs": [
        {
          "name": "success",
          "type": "bool"
        }
      ],
      "payable": false,
      "stateMutability": "nonpayable",
      "type": "function"
    },
    {
      "constant": false,
      "inputs": [
        {
          "name": "_spender",
          "type": "address"
        },
        {
          "name": "_subtractedValue",
          "type": "uint256"
        }
      ],
      "name": "decreaseApproval",
      "outputs": [
        {
          "name": "success",
          "type": "bool"
        }
      ],
      "payable": false,
      "stateMutability": "nonpayable",
      "type": "function"
    },
    {
      "constant": false,
      "inputs": [
        {
          "name": "_to",
          "type": "address"
        },
        {
          "name": "_value",
          "type": "uint256"
        }
      ],
      "name": "saleTransfer",
      "outputs": [
        {
          "name": "",
          "type": "bool"
        }
      ],
      "payable": false,
      "stateMutability": "nonpayable",
      "type": "function"
    },
    {
      "constant": false,
      "inputs": [
        {
          "name": "_to",
          "type": "address"
        },
        {
          "name": "_value",
          "type": "uint256"
        }
      ],
      "name": "sendBounty",
      "outputs": [
        {
          "name": "",
          "type": "bool"
        }
      ],
      "payable": false,
      "stateMutability": "nonpayable",
      "type": "function"
    },
    {
      "constant": false,
      "inputs": [
        {
          "name": "_value",
          "type": "uint256"
        }
      ],
      "name": "burn",
      "outputs": [
        {
          "name": "",
          "type": "bool"
        }
      ],
      "payable": false,
      "stateMutability": "nonpayable",
      "type": "function"
    },
    {
      "constant": false,
      "inputs": [],
      "name": "burnTokensForSale",
      "outputs": [
        {
          "name": "",
          "type": "bool"
        }
      ],
      "payable": false,
      "stateMutability": "nonpayable",
      "type": "function"
    },
    {
      "constant": true,
      "inputs": [],
      "name": "getVestingPeriodNumber",
      "outputs": [
        {
          "name": "",
          "type": "uint256"
        }
      ],
      "payable": false,
      "stateMutability": "view",
      "type": "function"
    },
    {
      "constant": false,
      "inputs": [],
      "name": "releaseAdvisorsTokens",
      "outputs": [
        {
          "name": "",
          "type": "bool"
        }
      ],
      "payable": false,
      "stateMutability": "nonpayable",
      "type": "function"
    },
    {
      "constant": false,
      "inputs": [],
      "name": "releaseTeamTokens",
      "outputs": [
        {
          "name": "",
          "type": "bool"
        }
      ],
      "payable": false,
      "stateMutability": "nonpayable",
      "type": "function"
    }
  ],
  "bytecode": "0x608060405262000033670de0b6b3a7640000633b9aca00620001af6401000000000262002572179091906401000000009004565b60045562000065670de0b6b3a76400006311e1a300620001af6401000000000262002572179091906401000000009004565b60055562000097670de0b6b3a76400006301c9c380620001af6401000000000262002572179091906401000000009004565b600655620000c9670de0b6b3a76400006305f5e100620001af6401000000000262002572179091906401000000009004565b600755600060085562000100670de0b6b3a7640000631dcd6500620001af6401000000000262002572179091906401000000009004565b60095562000131670de0b6b3a7640000626acfc0620001af6401000000000262002572179091906401000000009004565b600a556000600b556000600c556249d400600d556302d12480600e556001601260146101000a81548160ff02191690831515021790555033600360006101000a81548173ffffffffffffffffffffffffffffffffffffffff021916908373ffffffffffffffffffffffffffffffffffffffff160217905550620001ee565b6000806000841415620001c65760009150620001e7565b8284029050828482811515620001d857fe5b04141515620001e357fe5b8091505b5092915050565b612ca080620001fe6000396000f3006080604052600436106101a1576000357c0100000000000000000000000000000000000000000000000000000000900463ffffffff168063095ea7b3146101a657806312aef8c31461020b578063141c94221461023657806314c411c71461026157806318160ddd146102905780631a9bf9cf146102bb5780631b65144d146102e657806323b872dd146103155780632e5a6f171461039a578063404704b9146103c957806342966c681461042e57806344ae05671461047357806345fa40451461049e57806353e1ead9146104c95780636078268b14610520578063661884631461054b5780636b2cdc11146105b057806370a08231146105db5780637e1c0c091461063257806385f2aef21461065d5780638da5cb5b146106b4578063a1feba421461070b578063a51a86821461073a578063a9059cbb1461079f578063c3e3c7bc14610804578063d73dd6231461082f578063daf6ca3014610894578063dd62ed3e146108eb578063e06ec0bb14610962578063edcfd05014610979578063f2fde38b146109d0578063f6f0fa8d14610a13578063fdd080a414610a3e575b600080fd5b3480156101b257600080fd5b506101f1600480360381019080803573ffffffffffffffffffffffffffffffffffffffff16906020019092919080359060200190929190505050610a81565b604051808215151515815260200191505060405180910390f35b34801561021757600080fd5b50610220610b56565b6040518082815260200191505060405180910390f35b34801561024257600080fd5b5061024b610b5c565b6040518082815260200191505060405180910390f35b34801561026d57600080fd5b50610276610b62565b604051808215151515815260200191505060405180910390f35b34801561029c57600080fd5b506102a5610d70565b6040518082815260200191505060405180910390f35b3480156102c757600080fd5b506102d0610d7a565b6040518082815260200191505060405180910390f35b3480156102f257600080fd5b506102fb610d80565b604051808215151515815260200191505060405180910390f35b34801561032157600080fd5b50610380600480360381019080803573ffffffffffffffffffffffffffffffffffffffff169060200190929190803573ffffffffffffffffffffffffffffffffffffffff16906020019092919080359060200190929190505050610fd6565b604051808215151515815260200191505060405180910390f35b3480156103a657600080fd5b506103af6110ad565b604051808215151515815260200191505060405180910390f35b3480156103d557600080fd5b50610414600480360381019080803573ffffffffffffffffffffffffffffffffffffffff169060200190929190803590602001909291905050506112f6565b604051808215151515815260200191505060405180910390f35b34801561043a57600080fd5b50610459600480360381019080803590602001909291905050506114cf565b604051808215151515815260200191505060405180910390f35b34801561047f57600080fd5b50610488611670565b6040518082815260200191505060405180910390f35b3480156104aa57600080fd5b506104b3611676565b6040518082815260200191505060405180910390f35b3480156104d557600080fd5b506104de6116ba565b604051808273ffffffffffffffffffffffffffffffffffffffff1673ffffffffffffffffffffffffffffffffffffffff16815260200191505060405180910390f35b34801561052c57600080fd5b506105356116e0565b6040518082815260200191505060405180910390f35b34801561055757600080fd5b50610596600480360381019080803573ffffffffffffffffffffffffffffffffffffffff169060200190929190803590602001909291905050506116e6565b604051808215151515815260200191505060405180910390f35b3480156105bc57600080fd5b506105c56117bb565b6040518082815260200191505060405180910390f35b3480156105e757600080fd5b5061061c600480360381019080803573ffffffffffffffffffffffffffffffffffffffff1690602001909291905050506117c1565b6040518082815260200191505060405180910390f35b34801561063e57600080fd5b50610647611809565b6040518082815260200191505060405180910390f35b34801561066957600080fd5b5061067261180f565b604051808273ffffffffffffffffffffffffffffffffffffffff1673ffffffffffffffffffffffffffffffffffffffff16815260200191505060405180910390f35b3480156106c057600080fd5b506106c9611835565b604051808273ffffffffffffffffffffffffffffffffffffffff1673ffffffffffffffffffffffffffffffffffffffff16815260200191505060405180910390f35b34801561071757600080fd5b5061072061185b565b604051808215151515815260200191505060405180910390f35b34801561074657600080fd5b50610785600480360381019080803573ffffffffffffffffffffffffffffffffffffffff1690602001909291908035906020019092919050505061186e565b604051808215151515815260200191505060405180910390f35b3480156107ab57600080fd5b506107ea600480360381019080803573ffffffffffffffffffffffffffffffffffffffff1690602001909291908035906020019092919050505061193b565b604051808215151515815260200191505060405180910390f35b34801561081057600080fd5b50610819611a10565b6040518082815260200191505060405180910390f35b34801561083b57600080fd5b5061087a600480360381019080803573ffffffffffffffffffffffffffffffffffffffff16906020019092919080359060200190929190505050611a16565b604051808215151515815260200191505060405180910390f35b3480156108a057600080fd5b506108a9611aeb565b604051808273ffffffffffffffffffffffffffffffffffffffff1673ffffffffffffffffffffffffffffffffffffffff16815260200191505060405180910390f35b3480156108f757600080fd5b5061094c600480360381019080803573ffffffffffffffffffffffffffffffffffffffff169060200190929190803573ffffffffffffffffffffffffffffffffffffffff169060200190929190505050611b11565b6040518082815260200191505060405180910390f35b34801561096e57600080fd5b50610977611b98565b005b34801561098557600080fd5b5061098e611c0e565b604051808273ffffffffffffffffffffffffffffffffffffffff1673ffffffffffffffffffffffffffffffffffffffff16815260200191505060405180910390f35b3480156109dc57600080fd5b50610a11600480360381019080803573ffffffffffffffffffffffffffffffffffffffff169060200190929190505050611c34565b005b348015610a1f57600080fd5b50610a28611d8c565b6040518082815260200191505060405180910390f35b348015610a4a57600080fd5b50610a7f600480360381019080803573ffffffffffffffffffffffffffffffffffffffff169060200190929190505050611d92565b005b6000601260149054906101000a900460ff168015610aed5750600360009054906101000a900473ffffffffffffffffffffffffffffffffffffffff1673ffffffffffffffffffffffffffffffffffffffff163373ffffffffffffffffffffffffffffffffffffffff1614155b15610b44576000600c54118015610b195750600d54610b17600c544261208f90919063ffffffff16565b115b15610b3e576000601260146101000a81548160ff021916908315150217905550610b43565b600080fd5b5b610b4e83836120a8565b905092915050565b60055481565b600c5481565b6000806000610b6f611676565b9150600182101515610d6657610b9260085460075461208f90919063ffffffff16565b9050600081111515610ba357600080fd5b610bb88160015461219a90919063ffffffff16565b60018190555060045460015411151515610bd157600080fd5b610c4481600080601260009054906101000a900473ffffffffffffffffffffffffffffffffffffffff1673ffffffffffffffffffffffffffffffffffffffff1673ffffffffffffffffffffffffffffffffffffffff1681526020019081526020016000205461219a90919063ffffffff16565b600080601260009054906101000a900473ffffffffffffffffffffffffffffffffffffffff1673ffffffffffffffffffffffffffffffffffffffff1673ffffffffffffffffffffffffffffffffffffffff16815260200190815260200160002081905550610cbd8160085461219a90919063ffffffff16565b60088190555060075460085411151515610cd657600080fd5b601260009054906101000a900473ffffffffffffffffffffffffffffffffffffffff1673ffffffffffffffffffffffffffffffffffffffff163073ffffffffffffffffffffffffffffffffffffffff167fddf252ad1be2c89b69c2b068fc378daa952ba7f163c4a11628f55a4df523b3ef836040518082815260200191505060405180910390a360019250610d6b565b600092505b505090565b6000600154905090565b60065481565b600080600073ffffffffffffffffffffffffffffffffffffffff16600f60009054906101000a900473ffffffffffffffffffffffffffffffffffffffff1673ffffffffffffffffffffffffffffffffffffffff1614151515610de157600080fd5b600f60009054906101000a900473ffffffffffffffffffffffffffffffffffffffff1673ffffffffffffffffffffffffffffffffffffffff163373ffffffffffffffffffffffffffffffffffffffff16141515610e3d57600080fd5b600080600f60009054906101000a900473ffffffffffffffffffffffffffffffffffffffff1673ffffffffffffffffffffffffffffffffffffffff1673ffffffffffffffffffffffffffffffffffffffff168152602001908152602001600020549050600081111515610eaf57600080fd5b6001548111151515610ec057600080fd5b6000806000600f60009054906101000a900473ffffffffffffffffffffffffffffffffffffffff1673ffffffffffffffffffffffffffffffffffffffff1673ffffffffffffffffffffffffffffffffffffffff16815260200190815260200160002081905550610f3b8160015461208f90919063ffffffff16565b6001819055507fcc16f5dbb4873280815c1ee09dbd06736cffcc184412cf7a71a0fdb75d397ca5600f60009054906101000a900473ffffffffffffffffffffffffffffffffffffffff1682604051808373ffffffffffffffffffffffffffffffffffffffff1673ffffffffffffffffffffffffffffffffffffffff1681526020018281526020019250505060405180910390a1600191505090565b6000601260149054906101000a900460ff1680156110425750600360009054906101000a900473ffffffffffffffffffffffffffffffffffffffff1673ffffffffffffffffffffffffffffffffffffffff163373ffffffffffffffffffffffffffffffffffffffff1614155b15611099576000600c5411801561106e5750600d5461106c600c544261208f90919063ffffffff16565b115b15611093576000601260146101000a81548160ff021916908315150217905550611098565b600080fd5b5b6110a48484846121b8565b90509392505050565b600080600360009054906101000a900473ffffffffffffffffffffffffffffffffffffffff1673ffffffffffffffffffffffffffffffffffffffff163373ffffffffffffffffffffffffffffffffffffffff1614151561110c57600080fd5b611123600b54600a5461208f90919063ffffffff16565b905060008111151561113457600080fd5b6111498160015461219a90919063ffffffff16565b6001819055506004546001541115151561116257600080fd5b6111d581600080601060009054906101000a900473ffffffffffffffffffffffffffffffffffffffff1673ffffffffffffffffffffffffffffffffffffffff1673ffffffffffffffffffffffffffffffffffffffff1681526020019081526020016000205461219a90919063ffffffff16565b600080601060009054906101000a900473ffffffffffffffffffffffffffffffffffffffff1673ffffffffffffffffffffffffffffffffffffffff1673ffffffffffffffffffffffffffffffffffffffff1681526020019081526020016000208190555061124e81600b5461219a90919063ffffffff16565b600b81905550600a54600b541115151561126757600080fd5b601060009054906101000a900473ffffffffffffffffffffffffffffffffffffffff1673ffffffffffffffffffffffffffffffffffffffff163073ffffffffffffffffffffffffffffffffffffffff167fddf252ad1be2c89b69c2b068fc378daa952ba7f163c4a11628f55a4df523b3ef836040518082815260200191505060405180910390a3600191505090565b600080600360009054906101000a900473ffffffffffffffffffffffffffffffffffffffff1673ffffffffffffffffffffffffffffffffffffffff163373ffffffffffffffffffffffffffffffffffffffff1614151561135557600080fd5b611370670de0b6b3a76400008461257290919063ffffffff16565b9050806006541015151561138357600080fd5b6113988160015461219a90919063ffffffff16565b600181905550600454600154111515156113b157600080fd5b611402816000808773ffffffffffffffffffffffffffffffffffffffff1673ffffffffffffffffffffffffffffffffffffffff1681526020019081526020016000205461219a90919063ffffffff16565b6000808673ffffffffffffffffffffffffffffffffffffffff1673ffffffffffffffffffffffffffffffffffffffff168152602001908152602001600020819055506114598160065461208f90919063ffffffff16565b6006819055508373ffffffffffffffffffffffffffffffffffffffff163073ffffffffffffffffffffffffffffffffffffffff167fddf252ad1be2c89b69c2b068fc378daa952ba7f163c4a11628f55a4df523b3ef836040518082815260200191505060405180910390a3600191505092915050565b6000806114ed670de0b6b3a76400008461257290919063ffffffff16565b9050806000803373ffffffffffffffffffffffffffffffffffffffff1673ffffffffffffffffffffffffffffffffffffffff168152602001908152602001600020541015151561153c57600080fd5b806001541015151561154d57600080fd5b61159e816000803373ffffffffffffffffffffffffffffffffffffffff1673ffffffffffffffffffffffffffffffffffffffff1681526020019081526020016000205461208f90919063ffffffff16565b6000803373ffffffffffffffffffffffffffffffffffffffff1673ffffffffffffffffffffffffffffffffffffffff168152602001908152602001600020819055506115f58160015461208f90919063ffffffff16565b6001819055507fcc16f5dbb4873280815c1ee09dbd06736cffcc184412cf7a71a0fdb75d397ca53382604051808373ffffffffffffffffffffffffffffffffffffffff1673ffffffffffffffffffffffffffffffffffffffff1681526020018281526020019250505060405180910390a16001915050919050565b600b5481565b600080600c54141561168b57600090506116b7565b6116b4600e546116a6600c544261208f90919063ffffffff16565b6125ad90919063ffffffff16565b90505b90565b601160009054906101000a900473ffffffffffffffffffffffffffffffffffffffff1681565b600a5481565b6000601260149054906101000a900460ff1680156117525750600360009054906101000a900473ffffffffffffffffffffffffffffffffffffffff1673ffffffffffffffffffffffffffffffffffffffff163373ffffffffffffffffffffffffffffffffffffffff1614155b156117a9576000600c5411801561177e5750600d5461177c600c544261208f90919063ffffffff16565b115b156117a3576000601260146101000a81548160ff0219169083151502179055506117a8565b600080fd5b5b6117b383836125c8565b905092915050565b60095481565b60008060008373ffffffffffffffffffffffffffffffffffffffff1673ffffffffffffffffffffffffffffffffffffffff168152602001908152602001600020549050919050565b60045481565b601260009054906101000a900473ffffffffffffffffffffffffffffffffffffffff1681565b600360009054906101000a900473ffffffffffffffffffffffffffffffffffffffff1681565b601260149054906101000a900460ff1681565b60008073ffffffffffffffffffffffffffffffffffffffff16600f60009054906101000a900473ffffffffffffffffffffffffffffffffffffffff1673ffffffffffffffffffffffffffffffffffffffff16141515156118cd57600080fd5b600f60009054906101000a900473ffffffffffffffffffffffffffffffffffffffff1673ffffffffffffffffffffffffffffffffffffffff163373ffffffffffffffffffffffffffffffffffffffff1614151561192957600080fd5b6119338383612859565b905092915050565b6000601260149054906101000a900460ff1680156119a75750600360009054906101000a900473ffffffffffffffffffffffffffffffffffffffff1673ffffffffffffffffffffffffffffffffffffffff163373ffffffffffffffffffffffffffffffffffffffff1614155b156119fe576000600c541180156119d35750600d546119d1600c544261208f90919063ffffffff16565b115b156119f8576000601260146101000a81548160ff0219169083151502179055506119fd565b600080fd5b5b611a088383612859565b905092915050565b60075481565b6000601260149054906101000a900460ff168015611a825750600360009054906101000a900473ffffffffffffffffffffffffffffffffffffffff1673ffffffffffffffffffffffffffffffffffffffff163373ffffffffffffffffffffffffffffffffffffffff1614155b15611ad9576000600c54118015611aae5750600d54611aac600c544261208f90919063ffffffff16565b115b15611ad3576000601260146101000a81548160ff021916908315150217905550611ad8565b600080fd5b5b611ae38383612a78565b905092915050565b600f60009054906101000a900473ffffffffffffffffffffffffffffffffffffffff1681565b6000600260008473ffffffffffffffffffffffffffffffffffffffff1673ffffffffffffffffffffffffffffffffffffffff16815260200190815260200160002060008373ffffffffffffffffffffffffffffffffffffffff1673ffffffffffffffffffffffffffffffffffffffff16815260200190815260200160002054905092915050565b600360009054906101000a900473ffffffffffffffffffffffffffffffffffffffff1673ffffffffffffffffffffffffffffffffffffffff163373ffffffffffffffffffffffffffffffffffffffff16141515611bf457600080fd5b6000600c54141515611c0557600080fd5b42600c81905550565b601060009054906101000a900473ffffffffffffffffffffffffffffffffffffffff1681565b600360009054906101000a900473ffffffffffffffffffffffffffffffffffffffff1673ffffffffffffffffffffffffffffffffffffffff163373ffffffffffffffffffffffffffffffffffffffff16141515611c9057600080fd5b600073ffffffffffffffffffffffffffffffffffffffff168173ffffffffffffffffffffffffffffffffffffffff1614151515611ccc57600080fd5b8073ffffffffffffffffffffffffffffffffffffffff16600360009054906101000a900473ffffffffffffffffffffffffffffffffffffffff1673ffffffffffffffffffffffffffffffffffffffff167f8be0079c531659141344cd1fd0a4f28419497f9722a3daafe3b4186f6b6457e060405160405180910390a380600360006101000a81548173ffffffffffffffffffffffffffffffffffffffff021916908373ffffffffffffffffffffffffffffffffffffffff16021790555050565b60085481565b600360009054906101000a900473ffffffffffffffffffffffffffffffffffffffff1673ffffffffffffffffffffffffffffffffffffffff163373ffffffffffffffffffffffffffffffffffffffff16141515611dee57600080fd5b600073ffffffffffffffffffffffffffffffffffffffff168173ffffffffffffffffffffffffffffffffffffffff1614151515611e2a57600080fd5b80600f60006101000a81548173ffffffffffffffffffffffffffffffffffffffff021916908373ffffffffffffffffffffffffffffffffffffffff160217905550611ee0600554600080600f60009054906101000a900473ffffffffffffffffffffffffffffffffffffffff1673ffffffffffffffffffffffffffffffffffffffff1673ffffffffffffffffffffffffffffffffffffffff1681526020019081526020016000205461219a90919063ffffffff16565b600080600f60009054906101000a900473ffffffffffffffffffffffffffffffffffffffff1673ffffffffffffffffffffffffffffffffffffffff1673ffffffffffffffffffffffffffffffffffffffff16815260200190815260200160002081905550611f5b60055460015461219a90919063ffffffff16565b60018190555060045460015411151515611f7457600080fd5b600f60009054906101000a900473ffffffffffffffffffffffffffffffffffffffff1673ffffffffffffffffffffffffffffffffffffffff163073ffffffffffffffffffffffffffffffffffffffff167fddf252ad1be2c89b69c2b068fc378daa952ba7f163c4a11628f55a4df523b3ef6005546040518082815260200191505060405180910390a37f9ca62f58e4fb70943b408da6f28c33dd8a48223bc1f3cb8345fc8ba01be7fc24600f60009054906101000a900473ffffffffffffffffffffffffffffffffffffffff16600554604051808373ffffffffffffffffffffffffffffffffffffffff1673ffffffffffffffffffffffffffffffffffffffff1681526020018281526020019250505060405180910390a150565b600082821115151561209d57fe5b818303905092915050565b600081600260003373ffffffffffffffffffffffffffffffffffffffff1673ffffffffffffffffffffffffffffffffffffffff16815260200190815260200160002060008573ffffffffffffffffffffffffffffffffffffffff1673ffffffffffffffffffffffffffffffffffffffff168152602001908152602001600020819055508273ffffffffffffffffffffffffffffffffffffffff163373ffffffffffffffffffffffffffffffffffffffff167f8c5be1e5ebec7d5bd14f71427d1e84f3dd0314c0f7b2291e5b200ac8c7c3b925846040518082815260200191505060405180910390a36001905092915050565b60008082840190508381101515156121ae57fe5b8091505092915050565b60008073ffffffffffffffffffffffffffffffffffffffff168373ffffffffffffffffffffffffffffffffffffffff16141515156121f557600080fd5b6000808573ffffffffffffffffffffffffffffffffffffffff1673ffffffffffffffffffffffffffffffffffffffff16815260200190815260200160002054821115151561224257600080fd5b600260008573ffffffffffffffffffffffffffffffffffffffff1673ffffffffffffffffffffffffffffffffffffffff16815260200190815260200160002060003373ffffffffffffffffffffffffffffffffffffffff1673ffffffffffffffffffffffffffffffffffffffff1681526020019081526020016000205482111515156122cd57600080fd5b61231e826000808773ffffffffffffffffffffffffffffffffffffffff1673ffffffffffffffffffffffffffffffffffffffff1681526020019081526020016000205461208f90919063ffffffff16565b6000808673ffffffffffffffffffffffffffffffffffffffff1673ffffffffffffffffffffffffffffffffffffffff168152602001908152602001600020819055506123b1826000808673ffffffffffffffffffffffffffffffffffffffff1673ffffffffffffffffffffffffffffffffffffffff1681526020019081526020016000205461219a90919063ffffffff16565b6000808573ffffffffffffffffffffffffffffffffffffffff1673ffffffffffffffffffffffffffffffffffffffff1681526020019081526020016000208190555061248282600260008773ffffffffffffffffffffffffffffffffffffffff1673ffffffffffffffffffffffffffffffffffffffff16815260200190815260200160002060003373ffffffffffffffffffffffffffffffffffffffff1673ffffffffffffffffffffffffffffffffffffffff1681526020019081526020016000205461208f90919063ffffffff16565b600260008673ffffffffffffffffffffffffffffffffffffffff1673ffffffffffffffffffffffffffffffffffffffff16815260200190815260200160002060003373ffffffffffffffffffffffffffffffffffffffff1673ffffffffffffffffffffffffffffffffffffffff168152602001908152602001600020819055508273ffffffffffffffffffffffffffffffffffffffff168473ffffffffffffffffffffffffffffffffffffffff167fddf252ad1be2c89b69c2b068fc378daa952ba7f163c4a11628f55a4df523b3ef846040518082815260200191505060405180910390a3600190509392505050565b600080600084141561258757600091506125a6565b828402905082848281151561259857fe5b041415156125a257fe5b8091505b5092915050565b60008082848115156125bb57fe5b0490508091505092915050565b600080600260003373ffffffffffffffffffffffffffffffffffffffff1673ffffffffffffffffffffffffffffffffffffffff16815260200190815260200160002060008573ffffffffffffffffffffffffffffffffffffffff1673ffffffffffffffffffffffffffffffffffffffff168152602001908152602001600020549050808311156126d9576000600260003373ffffffffffffffffffffffffffffffffffffffff1673ffffffffffffffffffffffffffffffffffffffff16815260200190815260200160002060008673ffffffffffffffffffffffffffffffffffffffff1673ffffffffffffffffffffffffffffffffffffffff1681526020019081526020016000208190555061276d565b6126ec838261208f90919063ffffffff16565b600260003373ffffffffffffffffffffffffffffffffffffffff1673ffffffffffffffffffffffffffffffffffffffff16815260200190815260200160002060008673ffffffffffffffffffffffffffffffffffffffff1673ffffffffffffffffffffffffffffffffffffffff168152602001908152602001600020819055505b8373ffffffffffffffffffffffffffffffffffffffff163373ffffffffffffffffffffffffffffffffffffffff167f8c5be1e5ebec7d5bd14f71427d1e84f3dd0314c0f7b2291e5b200ac8c7c3b925600260003373ffffffffffffffffffffffffffffffffffffffff1673ffffffffffffffffffffffffffffffffffffffff16815260200190815260200160002060008873ffffffffffffffffffffffffffffffffffffffff1673ffffffffffffffffffffffffffffffffffffffff168152602001908152602001600020546040518082815260200191505060405180910390a3600191505092915050565b60008073ffffffffffffffffffffffffffffffffffffffff168373ffffffffffffffffffffffffffffffffffffffff161415151561289657600080fd5b6000803373ffffffffffffffffffffffffffffffffffffffff1673ffffffffffffffffffffffffffffffffffffffff1681526020019081526020016000205482111515156128e357600080fd5b612934826000803373ffffffffffffffffffffffffffffffffffffffff1673ffffffffffffffffffffffffffffffffffffffff1681526020019081526020016000205461208f90919063ffffffff16565b6000803373ffffffffffffffffffffffffffffffffffffffff1673ffffffffffffffffffffffffffffffffffffffff168152602001908152602001600020819055506129c7826000808673ffffffffffffffffffffffffffffffffffffffff1673ffffffffffffffffffffffffffffffffffffffff1681526020019081526020016000205461219a90919063ffffffff16565b6000808573ffffffffffffffffffffffffffffffffffffffff1673ffffffffffffffffffffffffffffffffffffffff168152602001908152602001600020819055508273ffffffffffffffffffffffffffffffffffffffff163373ffffffffffffffffffffffffffffffffffffffff167fddf252ad1be2c89b69c2b068fc378daa952ba7f163c4a11628f55a4df523b3ef846040518082815260200191505060405180910390a36001905092915050565b6000612b0982600260003373ffffffffffffffffffffffffffffffffffffffff1673ffffffffffffffffffffffffffffffffffffffff16815260200190815260200160002060008673ffffffffffffffffffffffffffffffffffffffff1673ffffffffffffffffffffffffffffffffffffffff1681526020019081526020016000205461219a90919063ffffffff16565b600260003373ffffffffffffffffffffffffffffffffffffffff1673ffffffffffffffffffffffffffffffffffffffff16815260200190815260200160002060008573ffffffffffffffffffffffffffffffffffffffff1673ffffffffffffffffffffffffffffffffffffffff168152602001908152602001600020819055508273ffffffffffffffffffffffffffffffffffffffff163373ffffffffffffffffffffffffffffffffffffffff167f8c5be1e5ebec7d5bd14f71427d1e84f3dd0314c0f7b2291e5b200ac8c7c3b925600260003373ffffffffffffffffffffffffffffffffffffffff1673ffffffffffffffffffffffffffffffffffffffff16815260200190815260200160002060008773ffffffffffffffffffffffffffffffffffffffff1673ffffffffffffffffffffffffffffffffffffffff168152602001908152602001600020546040518082815260200191505060405180910390a360019050929150505600a165627a7a72305820c6fdb0cf6ca49eaa198828d72f0be610ef87548c1bbf4ced3fb575c083be8ed80029",
  "source": "pragma solidity ^0.4.24;\nimport \"./StandardToken.sol\";\nimport \"./Ownable.sol\";\n\ncontract ConfigurableToken is StandardToken, Ownable\n{\n  uint256 public totalTokens = uint256(1000000000).mul(1 ether); //Total MAP Tokens\n  uint256 public tokensForSale = uint256(300000000).mul(1 ether); //Token for crowdsale 30%\n  uint256 public bountyTokens = uint256(30000000).mul(1 ether); //bounty Tokens 3%\n  uint256 public teamTokens = uint256(100000000).mul(1 ether); //Team Tokens 10%\n  uint256 public teamReleased = 0;\n  uint256 public companyHeldTokens = uint256(500000000).mul(1 ether);//Company held Tokens 50%\n  uint256 public advisorsTokens = uint256(7000000).mul(1 ether);//Advisors token 7%\n  uint256 public advisorsReleased = 0;\n  uint256 public listingDate = 0;\n  uint256 tokensUnlockPeriod = 4838400; // 56 days (8th Oct-2nd Dec)\n  uint256 vestingPeriod = 47260800; // 547 days (18 months)//only for Team tokens\n  address public saleContract;\n  address public advisors;\n  address public companyAddress;\n  address public team;\n  bool public tokensLocked = true;\n\n  event SaleContractActivation(address saleContract, uint256 tokensForSale);\n\n  event Burn(address tokensOwner, uint256 burnedTokensAmount);\n\n  modifier tokenNotLocked() {\n    if (tokensLocked && msg.sender != owner) \n    {\n      if (listingDate > 0 && now.sub(listingDate) > tokensUnlockPeriod) \n      {\n        tokensLocked = false;\n      } \n      else\n      {\n        revert();\n      }\n    }\n    _;\n  }\n ///@dev transfer token to sale contract\n///@param _saleContract ,address of a sale contract\n  \n  function activateSaleContract(address _saleContract) public onlyOwner //transfer sale tokens to crowdsale contract\n  \n  {\n    require(_saleContract != address(0));\n    saleContract = _saleContract;\n    balances[saleContract] = balances[saleContract].add(tokensForSale);\n    totalSupply_ = totalSupply_.add(tokensForSale);\n    require(totalSupply_ <= totalTokens);\n    Transfer(address(this), saleContract, tokensForSale);\n    SaleContractActivation(saleContract, tokensForSale);\n  }\n\n  function isListing() public onlyOwner//Timestamp for listing or vestingPeriod\n  {\n    require(listingDate==0);  \n    listingDate = now;\n  }\n\n  function transfer(address _to, uint256 _value) public tokenNotLocked returns (bool) {\n    return super.transfer(_to, _value);\n  }\n\n  function transferFrom(address _from, address _to, uint256 _value) public tokenNotLocked returns (bool) {\n    return super.transferFrom(_from, _to, _value);\n  }\n\n  function approve(address _spender, uint256 _value) public tokenNotLocked returns (bool) {\n    return super.approve(_spender, _value);\n  }\n\n  function increaseApproval(address _spender, uint _addedValue) public tokenNotLocked returns (bool success) {\n    return super.increaseApproval(_spender, _addedValue);\n  }\n\n  function decreaseApproval(address _spender, uint _subtractedValue) public tokenNotLocked returns (bool success) {\n    return super.decreaseApproval(_spender, _subtractedValue);\n  }\n\n  function saleTransfer(address _to, uint256 _value) public returns (bool) {\n    require(saleContract != address(0));\n    require(msg.sender == saleContract);\n    return super.transfer(_to, _value);\n  }\n  \n///@dev Send bounty tokens \n///@param _to address to which bounty token send\n///@param _value amount of tokens \n  \n  function sendBounty(address _to, uint256 _value) public onlyOwner returns (bool) //Function to send Bounty tokens\n  {\n    uint256 value = _value.mul(1 ether);\n    require(bountyTokens >= value);\n    totalSupply_ = totalSupply_.add(value);\n    require(totalSupply_ <= totalTokens);\n    balances[_to] = balances[_to].add(value);\n    bountyTokens = bountyTokens.sub(value);\n    Transfer(address(this), _to, value);\n    return true;\n  }\n/// @dev burn tokens of a given value\n///@dev _value , no of tokens to burn\n  \n  function burn(uint256 _value) public  returns (bool) {\n    uint256 value = _value.mul(1 ether);\n    require(balances[msg.sender] >= value);\n    require(totalSupply_ >= value);\n    balances[msg.sender] = balances[msg.sender].sub(value);\n    totalSupply_ = totalSupply_.sub(value);\n    Burn(msg.sender, value);\n    return true;\n  }\n  \n/// @dev burn tokens of crowdsale contract \n  function burnTokensForSale() public returns (bool) {\n    require(saleContract != address(0));\n    require(msg.sender == saleContract);\n    uint256 tokens = balances[saleContract];\n    require(tokens > 0);\n    require(tokens <= totalSupply_);\n    balances[saleContract] =0;\n    totalSupply_ = totalSupply_.sub(tokens);\n    Burn(saleContract, tokens);\n    return true;\n  }\n /// @dev Display vesting period \n  \n  function getVestingPeriodNumber() public view returns (uint256) \n  {\n    if (listingDate == 0) return 0;\n    return (now.sub(listingDate)).div(vestingPeriod);\n  }\n\n /// @dev release Advisors tokens on advisors address\n  function releaseAdvisorsTokens() public onlyOwner returns (bool) \n  {\n    \n    uint256 tokensToRelease = advisorsTokens.sub(advisorsReleased);\n    require(tokensToRelease > 0);\n    totalSupply_ = totalSupply_.add(tokensToRelease);\n    require(totalSupply_ <= totalTokens);\n    balances[advisors] = balances[advisors].add(tokensToRelease);\n    advisorsReleased = advisorsReleased.add(tokensToRelease);\n    require(advisorsReleased <= advisorsTokens);\n    Transfer(address(this), advisors, tokensToRelease);\n    return true;\n  }\n\n   /// @dev release team tokens after vesting period\n  \n\n  function releaseTeamTokens() public returns (bool) \n  {\n    uint256 vestingPeriodNumber = getVestingPeriodNumber();\n    if(vestingPeriodNumber>=1)\n{\n    uint256 tokensToRelease = teamTokens.sub(teamReleased);\n    require(tokensToRelease > 0);\n    totalSupply_ = totalSupply_.add(tokensToRelease);\n    require(totalSupply_ <= totalTokens);\n    balances[team] = balances[team].add(tokensToRelease);\n    teamReleased = teamReleased.add(tokensToRelease);\n    require(teamReleased <= teamTokens);\n    Transfer(address(this), team, tokensToRelease);\n    return true;\n  }\n  else {return false;}\n  }\n}\n",
  "sourcePath": "/home/abhi_21094/Desktop/maester-contract/contracts/ConfigurableToken.sol",
  "compiler": {
    "name": "solc",
    "version": "0.4.24+commit.e67f0147.Emscripten.clang"
  },
  "schemaVersion": "2.0.1",
  "updatedAt": "2018-10-05T12:50:53.340Z"
}